:100000000C942A000C943F000C943F000C943F0089
:100010000C943F000C943F000C943F000C943F0064
:100020000C943F000C943F000C943F000C943F0054
:100030000C943F000C943F000C943F000C943F0044
:100040000C943F000C943F000C943F000C943F0034
:100050000C943F0011241FBECFE5D8E0DEBFCDBF1A
:1000600010E0A0E6B0E0EAEEF9E302C005900D92E0
:10007000AE37B107D9F70E94FC110C94F31C0C9415
:100080000000EF92FF920F931F937B018C0120E001
:1000900030E040E05FE40E94410388238CF0C80117
:1000A000B70120E030E040E05FE40E94B9010E9427
:1000B000A1039B01AC01205030404040504806C095
:1000C000C801B7010E94A1039B01AC01B901CA019B
:1000D0001F910F91FF90EF900895A0E0B0E0E3E74B
:1000E000F0E00C94BC1CDC012B01FA019C919230D5
:1000F00008F439C1EB018881823008F433C19430AF
:1001000069F4843009F02FC111969C91119789816F
:10011000981709F428C1A0E6B0E025C1843009F49D
:1001200021C18230A9F4923009F01DC19A01AD01BC
:1001300088E0EA010990AE01E90109929E0181502F
:10014000C1F7E201898111969C918923818308C1BD
:10015000923009F407C112962D903C901397EB0151
:100160008A819B811496AD90BD90CD90DC901797BD
:10017000EC80FD800E811F819101281B390BB90194
:1001800037FF04C066277727621B730B6032710547
:100190000CF061C0121613066CF537014801062EEB
:1001A00004C096948794779467940A94D2F721E0D8
:1001B00030E040E050E004C0220F331F441F551FC1
:1001C0006A95D2F721503040404050402E213F21C7
:1001D00040235123211531054105510521F021E02E
:1001E00030E040E050E079018A01E628F72808294C
:1001F00019293CC0232BD1F1260E371E35014601AB
:10020000062E04C096948794779467940A94D2F744
:1002100021E030E040E050E004C0220F331F441FD3
:10022000551F6A95D2F721503040404050402A2156
:100230003B214C215D21211531054105510521F05E
:1002400021E030E040E050E059016A01A628B728DB
:10025000C828D9280BC0821593052CF01C01AA24AC
:10026000BB24650103C0EE24FF24870111969C91F5
:10027000D20111968C91981709F445C0992339F051
:10028000A80197012A193B094C095D0906C0A6017E
:1002900095012E193F09400B510B57FD08C01182E3
:1002A0003382228224833583468357831DC081E0B5
:1002B00081833382228288279927DC01821B930B5A
:1002C000A40BB50B84839583A683B7830DC0220F3F
:1002D000331F441F551F24833583468357838281F0
:1002E000938101979383828324813581468157814D
:1002F000DA01C9010197A109B1098F5F9F4FAF4F83
:10030000BF4328F30BC0918333822282EA0CFB1C8B
:100310000C1D1D1DE482F5820683178383E0808314
:10032000248135814681578157FF1AC0C901AA2708
:1003300097FDA095BA2F81709070A070B0705695FF
:10034000479537952795822B932BA42BB52B848328
:100350009583A683B7838281938101969383828359
:10036000DF0101C0D201CD01CDB7DEB7E2E10C94CF
:10037000D81CA0E2B0E0EFEBF1E00C94C81C69835C
:100380007A838B839C832D833E834F835887E9E058
:10039000EE2EF12CEC0EFD1ECE010196B7010E944F
:1003A000CA048E010F5E1F4FCE010596B8010E9450
:1003B000CA048A8991E089278A8BC701B801AE01F6
:1003C000475E5F4F0E946D000E94F503A096E6E035
:1003D0000C94E41CA0E2B0E0E0EFF1E00C94C81C47
:1003E00069837A838B839C832D833E834F835887D5
:1003F000F9E0EF2EF12CEC0EFD1ECE010196B701B7
:100400000E94CA048E010F5E1F4FCE010596B801EF
:100410000E94CA04C701B801AE01475E5F4F0E9447
:100420006D000E94F503A096E6E00C94E41CA0E2A7
:10043000B0E0EDE1F2E00C94BC1C69837A838B831D
:100440009C832D833E834F835887CE010196BE0146
:10045000675F7F4F0E94CA04CE010596BE016F5EA2
:100460007F4F0E94CA049985923088F08989823032
:10047000C8F0943019F4823051F404C0843029F467
:10048000923081F480E690E0C6C0923049F420E0DA
:100490009A858A89981321E02A87CE010996BBC0E4
:1004A000823049F420E09A858A89981321E02A8BCA
:1004B000CE014196B0C02D843E844F8458886D880B
:1004C0007E888F88988CEE24FF248701AA24BB2481
:1004D000650140E050E060E070E0E0E0F0E0C10184
:1004E00081709070892BE9F0E60CF71C081D191D2E
:1004F0009A01AB012A0D3B1D4C1D5D1D80E090E073
:10050000A0E0B0E0E614F7040805190520F481E046
:1005100090E0A0E0B0E0BA01A901480F591F6A1F9E
:100520007B1FAA0CBB1CCC1CDD1C97FE08C081E005
:1005300090E0A0E0B0E0A82AB92ACA2ADB2A3196C6
:10054000E032F10549F0660C771C881C991C569422
:10055000479437942794C3CFFA85EA892B893C893D
:100560008B859C85280F391F2E5F3F4F17C0CA010E
:1005700081709070892B61F016950795F794E79438
:1005800080E090E0A0E0B0E8E82AF92A0A2B1B2BD3
:1005900076956795579547952F5F3F4F77FDE7CF46
:1005A0000CC0440F551F661F771F17FD4160EE0CEE
:1005B000FF1C001F111F21503040403090E05907B0
:1005C00090E0690790E4790760F32B8F3C8FDB01A3
:1005D000CA018F779070A070B07080349105A1052A
:1005E000B10561F447FD0AC0E114F10401051105EC
:1005F00029F0405C5F4F6F4F7F4F40781A8EFE1797
:1006000011F081E08A8F4D8F5E8F6F8F78A383E02A
:10061000898FCE0149960E94F503A096E2E10C94E1
:10062000D81CA8E1B0E0E7E1F3E00C94C81C6983B2
:100630007A838B839C832D833E834F83588789E005
:10064000E82EF12CEC0EFD1ECE010196B7010E94A2
:10065000CA048E010F5E1F4FCE010596B8010E949D
:10066000CA048985823040F08989823028F0C70128
:10067000B8010E94420501C08FEF6896E6E00C9435
:10068000E41CA8E1B0E0E7E4F3E00C94C81C698343
:100690007A838B839C832D833E834F83588789E0A5
:1006A000E82EF12CEC0EFD1ECE010196B7010E9442
:1006B000CA048E010F5E1F4FCE010596B8010E943D
:1006C000CA048985823040F08989823028F0C701C8
:1006D000B8010E94420501C08FEF6896E6E00C94D5
:1006E000E41CA8E1B0E0E7E7F3E00C94C81C6983E0
:1006F0007A838B839C832D833E834F83588789E045
:10070000E82EF12CEC0EFD1ECE010196B7010E94E1
:10071000CA048E010F5E1F4FCE010596B8010E94DC
:10072000CA048985823040F08989823028F0C70167
:10073000B8010E94420501C081E06896E6E00C9491
:10074000E41CACE0B0E0E7EAF3E00C94CC1C698375
:100750007A838B839C83CE010196BE016B5F7F4FB2
:100760000E94CA048D81823061F1823050F1843060
:1007700021F48E81882351F12EC02F81388537FDD9
:1007800020C06E812F3131051CF06623F9F023C0A3
:100790008EE190E0821B930B29853A854B855C8521
:1007A00004C056954795379527958A95D2F76623C5
:1007B000B1F050954095309521953F4F4F4F5F4F89
:1007C0000EC020E030E040E050E009C02FEF3FEFE6
:1007D0004FEF5FE704C020E030E040E050E8B901AF
:1007E000CA012C96E2E00C94E81CDF92EF92FF9293
:1007F0000F931F93FC01E480F58006811781D1805F
:100800008081823048F480E090E0A0E1B0E0E82A06
:10081000F92A0A2B1B2BA5C0843009F49FC0823013
:1008200021F4EE24FF24870105C0E114F104010541
:10083000110519F4E0E0F0E096C0628173819FEF4A
:10084000623879070CF05BC022E83FEF261B370BBC
:100850002A3131052CF020E030E040E050E02AC0A1
:10086000B801A701022E04C0769567955795479564
:100870000A94D2F781E090E0A0E0B0E004C0880FD5
:10088000991FAA1FBB1F2A95D2F70197A109B10989
:100890008E219F21A023B1230097A105B10521F04E
:1008A00081E090E0A0E0B0E09A01AB01282B392B69
:1008B0004A2B5B2BDA01C9018F779070A070B07062
:1008C00080349105A105B10539F427FF09C0205CEA
:1008D0003F4F4F4F5F4F04C0215C3F4F4F4F5F4F23
:1008E000E0E0F0E02030A0E03A07A0E04A07A0E412
:1008F0005A0710F0E1E0F0E079018A0127C0603882
:10090000710564F5FB01E158FF4FD801C7018F77EE
:100910009070A070B07080349105A105B10539F4D4
:10092000E7FE0DC080E490E0A0E0B0E004C08FE3FB
:1009300090E0A0E0B0E0E80EF91E0A1F1B1F17FFB1
:1009400005C016950795F794E794319687E01695BC
:100950000795F794E7948A95D1F705C0EE24FF2414
:100960008701EFEFF0E06E2F679566276795902F70
:100970009F77D794DD24D7948E2F8695492F462BC9
:10098000582F5D29B701CA011F910F91FF90EF9079
:10099000DF900895FC01DB01408151812281622FAB
:1009A0006F7770E0221F2227221F9381892F880FE3
:1009B000822B282F30E0991F9927991F11969C931D
:1009C000119721153105A9F54115510561057105ED
:1009D00011F482E037C082E89FEF13969C938E93C8
:1009E00012979A01AB0167E0220F331F441F551F76
:1009F0006A95D1F783E08C930DC0220F331F441FFB
:100A0000551F12968D919C911397019713969C9365
:100A10008E931297203080E0380780E0480780E40A
:100A2000580758F314962D933D934D935C93179765
:100A300008952F3F310579F4411551056105710580
:100A400019F484E08C93089564FF03C081E08C93D3
:100A500012C01C9210C02F57304013963C932E9317
:100A6000129783E08C9387E0440F551F661F771F12
:100A70008A95D1F7706414964D935D936D937C9332
:100A8000179708951F93DC01FB019C91923008F4A5
:100A900047C08081823008F443C0943051F41196ED
:100AA0001C91843099F58181682F70E0611B710978
:100AB0003FC0843021F0923031F48230B9F181812D
:100AC000882389F12DC011961C9111978230F1F085
:100AD00081811817D9F412962D913C911397828138
:100AE00093818217930794F028173907BCF0149666
:100AF0008D919D910D90BC91A02D248135814681D1
:100B00005781281739074A075B0718F4112341F06A
:100B10000AC082179307A407B50740F4112319F000
:100B200061E070E005C06FEF7FEF02C060E070E051
:100B3000CB011F9108950F931F93DF93CF93CDB7F0
:100B4000DEB7C654D0400FB6F894DEBF0FBECDBF9F
:100B5000FE01ED5BFF4F80E090E0A8E4B3E480830A
:100B60009183A283B3838E01015C1F4FFE01ED5B75
:100B7000FF4F608171818281938120E030E04AEFF4
:100B800054E40E941702DC01CB01F80180839183B9
:100B9000A283B383FE01FF9660817181828193817C
:100BA00020E030E040E85FE30E94710388232CF4EA
:100BB00081E090E09EAF8DAF46C0FE01FF96608160
:100BC00071818281938120E03FEF4FE757E40E94DB
:100BD0001103181664F5FE01ED5BFF4F6081718112
:100BE0008281938120E030E040E251E40E941702CC
:100BF000DC01CB01BC01CD010E944100DC01CB0135
:100C00009EAF8DAF0FC088EC90E09CAF8BAF8BADEB
:100C10009CAD0197F1F79CAF8BAF8DAD9EAD019769
:100C20009EAF8DAF8DAD9EAD009769F716C0FE01EA
:100C3000FF9660817181828193810E944100DC0175
:100C4000CB019EAF8DAF8DAD9EAD9AAF89AF89AD13
:100C50009AAD0197F1F79AAF89AF81E460E041E086
:100C60000E947C0C81E461E041E00E947C0C81E404
:100C700062E041E00E947C0C81E463E041E00E947C
:100C80007C0C81E464E041E00E947C0C81E465E03E
:100C900041E00E947C0C81E466E041E00E947C0C13
:100CA00081E467E041E00E947C0C82E460E041E086
:100CB0000E947C0C82E462E041E00E947C0C82E4B1
:100CC00061E041E00E947C0C82E462E040E00E942E
:100CD000600D88E30E944A0980E090E0A0E8BFE34D
:100CE0008DAB9EABAFABB8AF6DA97EA98FA998AD08
:100CF00020E030E04AEF54E40E941702DC01CB010F
:100D000089AB9AABABABBCAB69A97AA98BA99CA9FF
:100D100020E030E040E85FE30E94710388232CF478
:100D200081E090E098AB8FA73FC069A97AA98BA911
:100D30009CA920E03FEF4FE757E40E9411031816EB
:100D40004CF56DA97EA98FA998AD20E030E040E276
:100D500051E40E941702DC01CB01BC01CD010E94CD
:100D60004100DC01CB0198AB8FA70FC088EC90E06D
:100D70009EA78DA78DA59EA50197F1F79EA78DA78C
:100D80008FA598A9019798AB8FA78FA598A90097D1
:100D900069F714C069A97AA98BA99CA90E9441008E
:100DA000DC01CB0198AB8FA78FA598A99CA78BA737
:100DB0008BA59CA50197F1F79CA78BA78EE00E94BD
:100DC0004A0980E090E0A0E8BFE38FA398A7A9A715
:100DD000BAA76FA178A589A59AA520E030E04AEFCF
:100DE00054E40E941702DC01CB018BA39CA3ADA3AA
:100DF000BEA36BA17CA18DA19EA120E030E040E8C4
:100E00005FE30E94710388232CF481E090E09AA3B1
:100E100089A33FC06BA17CA18DA19EA120E03FEFE3
:100E20004FE757E40E94110318164CF56FA178A5FF
:100E300089A59AA520E030E040E251E40E94170223
:100E4000DC01CB01BC01CD010E944100DC01CB01E2
:100E50009AA389A30FC088EC90E098A38F8F8F8D01
:100E600098A10197F1F798A38F8F89A19AA1019773
:100E70009AA389A389A19AA1009769F714C06BA1CD
:100E80007CA18DA19EA10E944100DC01CB019AA30F
:100E900089A389A19AA19E8F8D8F8D8D9E8D01979B
:100EA000F1F79E8F8D8F81E00E944A0980E090E0EB
:100EB000A0E2B1E4898F9A8FAB8FBC8F698D7A8D58
:100EC0008B8D9C8D20E030E04AEF54E40E941702A5
:100ED000DC01CB018D8B9E8BAF8BB88F6D897E89AA
:100EE0008F89988D20E030E040E85FE30E94710335
:100EF00088232CF481E090E09C8B8B8B3FC06D8924
:100F00007E898F89988D20E03FEF4FE757E40E945C
:100F1000110318164CF5698D7A8D8B8D9C8D20E010
:100F200030E040E251E40E941702DC01CB01BC0139
:100F3000CD010E944100DC01CB019C8B8B8B0FC04B
:100F400088EC90E09A8B898B89899A890197F1F7CF
:100F50009A8B898B8B899C8901979C8B8B8B8B8936
:100F60009C89009769F714C06D897E898F89988D57
:100F70000E944100DC01CB019C8B8B8B8B899C896F
:100F8000988B8F878F8598890197F1F7988B8F873A
:100F900086E00E944A0980E090E0A0E8BFE38B87EA
:100FA0009C87AD87BE876B857C858D859E8520E07F
:100FB00030E04AEF54E40E941702DC01CB018F833A
:100FC0009887A987BA876F81788589859A8520E077
:100FD00030E040E85FE30E94710388232CF481E055
:100FE00090E09E838D833FC06F81788589859A8547
:100FF00020E03FEF4FE757E40E94110318164CF52D
:101000006B857C858D859E8520E030E040E251E453
:101010000E941702DC01CB01BC01CD010E944100FE
:10102000DC01CB019E838D830FC088EC90E09C8314
:101030008B838B819C810197F1F79C838B838D81BE
:101040009E8101979E838D838D819E81009769F794
:1010500014C06F81788589859A850E944100DC01E2
:10106000CB019E838D838D819E819A838983898123
:101070009A810197F1F79A838983CA5BDF4F0FB694
:10108000F894DEBF0FBECDBFCF91DF911F910F91BE
:101090000895DF93CF93CDB7DEB76C970FB6F89472
:1010A000DEBF0FBECDBF82E460E041E00E94600D74
:1010B00080E090E0A0E0B0E4898F9A8FAB8FBC8F86
:1010C000698D7A8D8B8D9C8D20E030E04AEF54E461
:1010D0000E941702DC01CB018D8B9E8BAF8BB88FEA
:1010E0006D897E898F89988D20E030E040E85FE34C
:1010F0000E94710388232CF481E090E09C8B8B8B01
:101100003FC06D897E898F89988D20E03FEF4FE742
:1011100057E40E94110318164CF5698D7A8D8B8D5A
:101120009C8D20E030E040E251E40E941702DC0197
:10113000CB01BC01CD010E944100DC01CB019C8BA5
:101140008B8B0FC088EC90E09A8B898B89899A8968
:101150000197F1F79A8B898B8B899C8901979C8BDE
:101160008B8B8B899C89009769F714C06D897E8968
:101170008F89988D0E944100DC01CB019C8B8B8B69
:101180008B899C89988B8F878F8598890197F1F738
:10119000988B8F8782E460E040E00E94600D80E0E1
:1011A00090E0A0E0B0E48B879C87AD87BE876B851D
:1011B0007C858D859E8520E030E04AEF54E40E94D6
:1011C0001702DC01CB018F839887A987BA876F81CB
:1011D000788589859A8520E030E040E85FE30E94C9
:1011E000710388232CF481E090E09E838D833FC0BF
:1011F0006F81788589859A8520E03FEF4FE757E436
:101200000E94110318164CF56B857C858D859E8593
:1012100020E030E040E251E40E941702DC01CB0103
:10122000BC01CD010E944100DC01CB019E838D8376
:101230000FC088EC90E09C838B838B819C8101970D
:10124000F1F79C838B838D819E8101979E838D8393
:101250008D819E81009769F714C06F81788589859B
:101260009A850E944100DC01CB019E838D838D8194
:101270009E819A83898389819A810197F1F79A8364
:1012800089836C960FB6F894DEBF0FBECDBFCF91A9
:10129000DF910895DF93CF93CDB7DEB72F970FB6C9
:1012A000F894DEBF0FBECDBF8F8781E46F850E94AB
:1012B000B00F82E461E040E00E94600D0E944908A6
:1012C00080E090E0A0E8BFE38B879C87AD87BE8776
:1012D0006B857C858D859E8520E030E04AEF54E467
:1012E0000E941702DC01CB018F839887A987BA87F8
:1012F0006F81788589859A8520E030E040E85FE35A
:101300000E94710388232CF481E090E09E838D83FA
:101310003FC06F81788589859A8520E03FEF4FE750
:1013200057E40E94110318164CF56B857C858D855A
:101330009E8520E030E040E251E40E941702DC018B
:10134000CB01BC01CD010E944100DC01CB019E8399
:101350008D830FC088EC90E09C838B838B819C8174
:101360000197F1F79C838B838D819E8101979E83EA
:101370008D838D819E81009769F714C06F81788578
:1013800089859A850E944100DC01CB019E838D8373
:101390008D819E819A83898389819A810197F1F752
:1013A0009A8389832F960FB6F894DEBF0FBECDBF08
:1013B000CF91DF910895DF93CF93CDB7DEB72F970D
:1013C0000FB6F894DEBF0FBECDBF8F8781E46F8567
:1013D0000E94B00F82E461E041E00E94600D0E9433
:1013E000490880E090E0A0E8BFE38B879C87AD8749
:1013F000BE876B857C858D859E8520E030E04AEF39
:1014000054E40E941702DC01CB018F839887A987DF
:10141000BA876F81788589859A8520E030E040E839
:101420005FE30E94710388232CF481E090E09E83A7
:101430008D833FC06F81788589859A8520E03FEF55
:101440004FE757E40E94110318164CF56B857C8515
:101450008D859E8520E030E040E251E40E94170235
:10146000DC01CB01BC01CD010E944100DC01CB01BC
:101470009E838D830FC088EC90E09C838B838B814F
:101480009C810197F1F79C838B838D819E810197CD
:101490009E838D838D819E81009769F714C06F8133
:1014A000788589859A850E944100DC01CB019E8365
:1014B0008D838D819E819A83898389819A81019709
:1014C000F1F79A8389832F960FB6F894DEBF0FBE8B
:1014D000CDBFCF91DF910895DF93CF9300D0CDB7EB
:1014E000DEB79A8389830AC0E981FA8180810E94EC
:1014F000DB0989819A8101969A838983E981FA813E
:101500008081882389F70F900F90CF91DF91089504
:10151000DF93CF93CDB7DEB72E970FB6F894DEBF2B
:101520000FBECDBF81E00E944A0980E090E0A0E2BA
:10153000B1E48B879C87AD87BE876B857C858D8565
:101540009E8520E030E04AEF54E40E941702DC015F
:10155000CB018F839887A987BA876F817885898522
:101560009A8520E030E040E85FE30E947103882321
:101570002CF481E090E09E838D833FC06F8178855D
:1015800089859A8520E03FEF4FE757E40E941103D9
:1015900018164CF56B857C858D859E8520E030E0A6
:1015A00040E251E40E941702DC01CB01BC01CD01F5
:1015B0000E944100DC01CB019E838D830FC088EC2B
:1015C00090E09C838B838B819C810197F1F79C83B6
:1015D0008B838D819E8101979E838D838D819E81DA
:1015E000009769F714C06F81788589859A850E9474
:1015F0004100DC01CB019E838D838D819E819A8386
:10160000898389819A810197F1F79A8389832E963C
:101610000FB6F894DEBF0FBECDBFCF91DF91089516
:10162000DF93CF93CDB7DEB761970FB6F894DEBFE7
:101630000FBECDBF888B698B8889833048F4888939
:10164000882331F08989813118F48989882319F434
:1016500080E88F870DC08889813021F4898981587D
:101660008F8706C08889823019F4898981548F87D1
:101670008F850E944A0980E090E0A0E8BFE38B8755
:101680009C87AD87BE876B857C858D859E8520E098
:1016900030E04AEF54E40E941702DC01CB018F8353
:1016A0009887A987BA876F81788589859A8520E090
:1016B00030E040E85FE30E94710388232CF481E06E
:1016C00090E09E838D833FC06F81788589859A8560
:1016D00020E03FEF4FE757E40E94110318164CF546
:1016E0006B857C858D859E8520E030E040E251E46D
:1016F0000E941702DC01CB01BC01CD010E94410018
:10170000DC01CB019E838D830FC088EC90E09C832D
:101710008B838B819C810197F1F79C838B838D81D7
:101720009E8101979E838D838D819E81009769F7AD
:1017300014C06F81788589859A850E944100DC01FB
:10174000CB019E838D838D819E819A83898389813C
:101750009A810197F1F79A83898361960FB6F8947D
:10176000DEBF0FBECDBFCF91DF910895DF93CF9342
:10177000CDB7DEB784E460E041E00E947C0C84E4F5
:1017800061E041E00E947C0C84E462E041E00E9460
:101790007C0C84E463E041E00E947C0C84E464E01F
:1017A00040E00E947C0C84E465E040E00E947C0CF8
:1017B00084E466E040E00E947C0C84E467E040E062
:1017C0000E947C0C84E464E041E00E94351084E4D3
:1017D00065E041E00E94351084E466E041E00E944B
:1017E000351084E467E041E00E943510CF91DF912D
:1017F0000895DF93CF93CDB7DEB769970FB6F8940E
:10180000DEBF0FBECDBFCE0105969E8B8D8BE8E669
:10181000F0E0F88FEF8BF0E1F98FEF89F88D008021
:101820008F89988D0196988F8F8BED89FE89008224
:101830008D899E8901969E8B8D8B998D9150998F64
:10184000E98DEE2351F78FEF89831C8247C084E432
:1018500060E041E00E94600D84E461E041E00E94AC
:10186000600D84E462E041E00E94600D84E463E086
:1018700041E00E94600D84E46C8140E00E94600DB4
:101880001B8223C08B81982F9C5F84E4692F0E9468
:10189000440E8A838A818823A9F48C81282F30E022
:1018A0008B81482F50E0220F331F220F331FCE01B0
:1018B0000196820F931F840F951FFC01349680813F
:1018C000898306C08B818F5F8B838B818430D0F2BC
:1018D0008A81882339F08C818F5F8C838C8184305E
:1018E00008F4B5CF898169960FB6F894DEBF0FBEB4
:1018F000CDBFCF91DF910895DF93CF9300D000D07B
:101900000F92CDB7DEB789836A834B838981282FF5
:1019100030E03D832C838C819D818234910509F4D4
:1019200044C02C813D812334310534F48C819D8168
:101930008134910571F0BCC02C813D812334310587
:1019400009F45FC08C819D818434910509F485C0C0
:10195000AFC08B818130A1F4AAE3B0E0EAE3F0E00C
:101960008081482F8A81282F30E081E090E0022E8C
:1019700002C0880F991F0A94E2F7842B8C9398C0B9
:10198000AAE3B0E0EAE3F0E08081482F8A81282FC3
:1019900030E081E090E0022E02C0880F991F0A9487
:1019A000E2F7809584238C9383C08B818130A1F4EE
:1019B000A7E3B0E0E7E3F0E08081482F8A81282F99
:1019C00030E081E090E0022E02C0880F991F0A9457
:1019D000E2F7842B8C936CC0A7E3B0E0E7E3F0E080
:1019E0008081482F8A81282F30E081E090E0022E0C
:1019F00002C0880F991F0A94E2F7809584238C9384
:101A000057C08B818130A1F4A4E3B0E0E4E3F0E0BF
:101A10008081482F8A81282F30E081E090E0022EDB
:101A200002C0880F991F0A94E2F7842B8C9340C060
:101A3000A4E3B0E0E4E3F0E08081482F8A81282F1E
:101A400030E081E090E0022E02C0880F991F0A94D6
:101A5000E2F7809584238C932BC08B818130A1F495
:101A6000A1E3B0E0E1E3F0E08081482F8A81282FF4
:101A700030E081E090E0022E02C0880F991F0A94A6
:101A8000E2F7842B8C9314C0A1E3B0E0E1E3F0E033
:101A90008081482F8A81282F30E081E090E0022E5B
:101AA00002C0880F991F0A94E2F7809584238C93D3
:101AB0000F900F900F900F900F90CF91DF9108959E
:101AC000DF93CF9300D000D00F92CDB7DEB78983DC
:101AD0006A834B838981282F30E03D832C838C815E
:101AE0009D818234910509F444C02C813D812334C9
:101AF000310534F48C819D818134910571F0BCC035
:101B00002C813D812334310509F45FC08C819D8196
:101B10008434910509F485C0AFC08B818130A1F474
:101B2000ABE3B0E0EBE3F0E08081482F8A81282F1F
:101B300030E081E090E0022E02C0880F991F0A94E5
:101B4000E2F7842B8C9398C0ABE3B0E0EBE3F0E0DA
:101B50008081482F8A81282F30E081E090E0022E9A
:101B600002C0880F991F0A94E2F7809584238C9312
:101B700083C08B818130A1F4A8E3B0E0E8E3F0E01A
:101B80008081482F8A81282F30E081E090E0022E6A
:101B900002C0880F991F0A94E2F7842B8C936CC0C3
:101BA000A8E3B0E0E8E3F0E08081482F8A81282FA5
:101BB00030E081E090E0022E02C0880F991F0A9465
:101BC000E2F7809584238C9357C08B818130A1F4F8
:101BD000A5E3B0E0E5E3F0E08081482F8A81282F7B
:101BE00030E081E090E0022E02C0880F991F0A9435
:101BF000E2F7842B8C9340C0A5E3B0E0E5E3F0E08E
:101C00008081482F8A81282F30E081E090E0022EE9
:101C100002C0880F991F0A94E2F7809584238C9361
:101C20002BC08B818130A1F4A2E3B0E0E2E3F0E0CD
:101C30008081482F8A81282F30E081E090E0022EB9
:101C400002C0880F991F0A94E2F7842B8C9314C06A
:101C5000A2E3B0E0E2E3F0E08081482F8A81282F00
:101C600030E081E090E0022E02C0880F991F0A94B4
:101C7000E2F7809584238C930F900F900F900F9034
:101C80000F90CF91DF910895DF93CF9300D000D0D4
:101C90000F92CDB7DEB78A836B8319828A81282F92
:101CA00030E03D832C834C815D8142345105B1F19C
:101CB0008C819D818334910534F42C813D812134C4
:101CC000310571F084C04C815D814334510509F4C4
:101CD00043C08C819D818434910509F45BC077C039
:101CE000E9E3F0E08081482F50E08B81282F30E03D
:101CF00081E090E002C0880F991F2A95E2F79A01CF
:101D0000282339238B81882F90E0A90102C05595A3
:101D100047958A95E2F7CA01898359C0E6E3F0E066
:101D20008081482F50E08B81282F30E081E090E0C7
:101D300002C0880F991F2A95E2F79A0128233923B8
:101D40008B81882F90E0A90102C0559547958A950F
:101D5000E2F7CA0189833BC0E3E3F0E08081482FCA
:101D600050E08B81282F30E081E090E002C0880FA6
:101D7000991F2A95E2F79A01282339238B81882F0E
:101D800090E0A90102C0559547958A95E2F7CA01EE
:101D900089831DC0E0E3F0E08081482F50E08B8113
:101DA000282F30E081E090E002C0880F991F2A952B
:101DB000E2F79A01282339238B81882F90E0A9012B
:101DC00002C0559547958A95E2F7CA0189838981B2
:101DD0000F900F900F900F900F90CF91DF9108957B
:101DE000DF93CF9300D000D0CDB7DEB789836A836D
:101DF0008981282F30E03C832B838B819C81823426
:101E0000910551F12B813C812334310534F48B81D0
:101E10009C818134910561F05AC02B813C8123342F
:101E2000310571F18B819C8184349105E9F14FC0BA
:101E3000ABE3B0E0EBE3F0E08081482F8A81282F0C
:101E400030E081E090E0022E02C0880F991F0A94D2
:101E5000E2F784278C933BC0A8E3B0E0E8E3F0E02E
:101E60008081482F8A81282F30E081E090E0022E87
:101E700002C0880F991F0A94E2F784278C9327C029
:101E8000A5E3B0E0E5E3F0E08081482F8A81282FC8
:101E900030E081E090E0022E02C0880F991F0A9482
:101EA000E2F784278C9313C0A2E3B0E0E2E3F0E012
:101EB0008081482F8A81282F30E081E090E0022E37
:101EC00002C0880F991F0A94E2F784278C930F9021
:101ED0000F900F900F90CF91DF910895DF93CF93E4
:101EE00000D000D0CDB7DEB789836A838981282FDF
:101EF00030E03C832B838B819C8182349105D9F027
:101F00002B813C812334310534F48B819C818134D5
:101F1000910561F01EC02B813C812334310581F095
:101F20008B819C818434910581F013C0EAE3F0E059
:101F30008A8180830EC0E7E3F0E08A81808309C054
:101F4000E4E3F0E08A81808304C0E1E3F0E08A8189
:101F500080830F900F900F900F90CF91DF91089595
:101F6000DF93CF9300D000D0CDB7DEB789836A83EB
:101F70008981282F30E03C832B838B819C818234A4
:101F80009105D9F02B813C812334310534F48B81C8
:101F90009C818134910561F01EC02B813C812334EA
:101FA000310581F08B819C818434910581F013C0CF
:101FB000EBE3F0E08A8180830EC0E8E3F0E08A8101
:101FC000808309C0E5E3F0E08A81808304C0E2E316
:101FD000F0E08A8180830F900F900F900F90CF9147
:101FE000DF910895DF93CF9300D000D0CDB7DEB757
:101FF0008A8319828A81282F30E03C832B838B814E
:102000009C8182349105D9F02B813C8123343105A8
:1020100034F48B819C818134910561F01EC02B8149
:102020003C812334310581F08B819C81843491057E
:1020300081F013C0E9E3F0E0808189830EC0E6E31C
:10204000F0E08081898309C0E3E3F0E08081898347
:1020500004C0E0E3F0E08081898389810F900F90D4
:102060000F900F90CF91DF910895DF93CF9300D021
:1020700000D00F92CDB7DEB789836A834B83898105
:10208000282F30E03D832C838C819D818234910503
:1020900009F444C02C813D812334310534F48C8112
:1020A0009D818134910571F0BCC02C813D81233428
:1020B000310509F45FC08C819D818434910509F458
:1020C00085C0AFC08B818130A1F4ABE3B0E0EBE31E
:1020D000F0E08081482F8A81282F30E081E090E075
:1020E000022E02C0880F991F0A94E2F7842B8C936A
:1020F00098C0ABE3B0E0EBE3F0E08081482F8A8149
:10210000282F30E081E090E0022E02C0880F991F56
:102110000A94E2F7809584238C9383C08B8181306D
:10212000A1F4A8E3B0E0E8E3F0E08081482F8A81E1
:10213000282F30E081E090E0022E02C0880F991F26
:102140000A94E2F7842B8C936CC0A8E3B0E0E8E338
:10215000F0E08081482F8A81282F30E081E090E0F4
:10216000022E02C0880F991F0A94E2F780958423FB
:102170008C9357C08B818130A1F4A5E3B0E0E5E3F7
:10218000F0E08081482F8A81282F30E081E090E0C4
:10219000022E02C0880F991F0A94E2F7842B8C93B9
:1021A00040C0A5E3B0E0E5E3F0E08081482F8A81FC
:1021B000282F30E081E090E0022E02C0880F991FA6
:1021C0000A94E2F7809584238C932BC08B81813015
:1021D000A1F4A2E3B0E0E2E3F0E08081482F8A813D
:1021E000282F30E081E090E0022E02C0880F991F76
:1021F0000A94E2F7842B8C9314C0A2E3B0E0E2E3EC
:10220000F0E08081482F8A81282F30E081E090E043
:10221000022E02C0880F991F0A94E2F7809584234A
:102220008C930F900F900F900F900F90CF91DF91A4
:102230000895DF93CF9300D000D0CDB7DEB7898368
:102240006A838A818F708A838981282F30E03C835A
:102250002B838B819C818234910531F12B813C81D0
:102260002334310534F48B819C818134910561F0F4
:102270004AC02B813C812334310531F18B819C8113
:102280008434910589F13FC0ABE3B0E0EBE3F0E0CB
:102290008081807F8C93ABE3B0E0EBE3F0E0908152
:1022A0008A81892B8C932FC0A8E3B0E0E8E3F0E0AB
:1022B0008081807F8C93A8E3B0E0E8E3F0E0908138
:1022C0008A81892B8C931FC0A5E3B0E0E5E3F0E0A1
:1022D0008081807F8C93A5E3B0E0E5E3F0E090811E
:1022E0008A81892B8C930FC0A2E3B0E0E2E3F0E097
:1022F0008081807F8C93A2E3B0E0E2E3F0E0908104
:102300008A81892B8C930F900F900F900F90CF9113
:10231000DF910895DF93CF9300D000D0CDB7DEB723
:1023200089836A838A818295807F8A838981282F25
:1023300030E03C832B838B819C818234910531F189
:102340002B813C812334310534F48B819C81813491
:10235000910561F04AC02B813C812334310531F174
:102360008B819C818434910589F13FC0ABE3B0E05F
:10237000EBE3F0E080818F708C93ABE3B0E0EBE3B4
:10238000F0E090818A81892B8C932FC0A8E3B0E084
:10239000E8E3F0E080818F708C93A8E3B0E0E8E39D
:1023A000F0E090818A81892B8C931FC0A5E3B0E077
:1023B000E5E3F0E080818F708C93A5E3B0E0E5E386
:1023C000F0E090818A81892B8C930FC0A2E3B0E06A
:1023D000E2E3F0E080818F708C93A2E3B0E0E2E36F
:1023E000F0E090818A81892B8C930F900F900F9051
:1023F0000F90CF91DF9108950F931F93DF93CF93A9
:10240000CDB7DEB7C456D0400FB6F894DEBF0FBECE
:10241000CDBF0E949B050E94B60BCE01885A9F4FEC
:10242000A2969FAF8EAFA29728E730E0A4963FAF69
:102430002EAFA49736E0A5963FAFA597A496EEAD34
:10244000FFADA4970080A4962EAD3FADA4972F5F5B
:102450003F4FA4963FAF2EAFA497A296EEADFFAD2F
:10246000A2970082A2962EAD3FADA2972F5F3F4F5D
:10247000A2963FAF2EAFA297A5963FADA59731503C
:10248000A5963FAFA597A5968FADA5978823B1F6E2
:10249000FE01EB5AFF4F1082FE01EB5AFF4F808185
:1024A000082F10E00E94F90B282FCE01885A9F4F69
:1024B000FC01E00FF11F2083FE01EB5AFF4F8081EA
:1024C000282F30E0CE01885A9F4FFC01E20FF31F06
:1024D00080818F3F09F3FE01EB5AFF4F8081282F47
:1024E00030E0CE01885A9F4FFC01E20FF31F80813C
:1024F000813409F44BC0FE01EB5AFF4F8081282F35
:1025000030E0CE01885A9F4FFC01E20FF31F80811B
:102510008D33E1F1FE01EB5AFF4F8081282F30E02F
:10252000CE01885A9F4FFC01E20FF31F80818B324E
:1025300069F1FE01EB5AFF4F8081282F30E0CE0178
:10254000885A9F4FFC01E20FF31F80818D32F1F01A
:10255000FE01EB5AFF4F8081282F30E0CE01885AD0
:102560009F4FFC01E20FF31F80818A3279F0FE0158
:10257000EB5AFF4F8081282F30E0CE01885A9F4FC1
:10258000FC01E20FF31F80818F3219F40E94880A48
:1025900040CFFE01EB5AFF4F8081282F30E0CE0163
:1025A000885A9F4FFC01E20FF31F80810E94DB09D4
:1025B000DE01AB5ABF4FFE01EB5AFF4F80818F5FA8
:1025C0008C93FE01EF5AFF4F80E090E0A6E9B3E460
:1025D00080839183A283B3838E01035B1F4FFE012F
:1025E000EF5AFF4F608171818281938120E030E05A
:1025F0004AEF54E40E941702DC01CB01F80180830A
:102600009183A283B383FE01E35BFF4F60817181FD
:102610008281938120E030E040E85FE30E94710313
:10262000882344F4FE01E55BFF4F81E090E0918355
:10263000808364C0FE01E35BFF4F60817181828112
:10264000938120E03FEF4FE757E40E9411031816F3
:102650000CF043C0FE01EF5AFF4F6081718182810F
:10266000938120E030E040E251E40E941702DC0157
:10267000CB018E01055B1F4FBC01CD010E944100C3
:10268000DC01CB01F801918380831FC0FE01E75B71
:10269000FF4F88EC90E091838083FE01E75BFF4F62
:1026A000808191810197F1F7FE01E75BFF4F9183F4
:1026B0008083DE01A55BBF4FFE01E55BFF4F80819C
:1026C0009181019711969C938E93FE01E55BFF4FDC
:1026D000808191810097D1F627C08E01055B1F4F45
:1026E000FE01E35BFF4F60817181828193810E94D3
:1026F0004100DC01CB01F80191838083DE01A95BFD
:10270000BF4FFE01E55BFF4F808191818D939C93CC
:10271000FE01E95BFF4F808191810197F1F7FE0196
:10272000E95BFF4F91838083FE01EB5AFF4F80816D
:10273000082F10E00E94F90B282FCE01885A9F4FD6
:10274000FC01E00FF11F2083FE01EB5AFF4F808157
:10275000282F30E0CE01885A9F4FFC01E20FF31F73
:1027600080818F3F09F3FE01EB5AFF4F8081282FB4
:1027700030E0CE01885A9F4FFC01E20FF31F8081A9
:10278000813409F44BC0FE01EB5AFF4F8081282FA2
:1027900030E0CE01885A9F4FFC01E20FF31F808189
:1027A0008D33E1F1FE01EB5AFF4F8081282F30E09D
:1027B000CE01885A9F4FFC01E20FF31F80818B32BC
:1027C00069F1FE01EB5AFF4F8081282F30E0CE01E6
:1027D000885A9F4FFC01E20FF31F80818D32F1F088
:1027E000FE01EB5AFF4F8081282F30E0CE01885A3E
:1027F0009F4FFC01E20FF31F80818A3279F0FE01C6
:10280000EB5AFF4F8081282F30E0CE01885A9F4F2E
:10281000FC01E20FF31F80818F3219F40E94880AB5
:10282000F8CDFE01EB5AFF4F8081282F30E0CE011A
:10283000885A9F4FFC01E20FF31F80810E94DB0941
:10284000DE01AB5ABF4FFE01EB5AFF4F80818F5F15
:102850008C93FE01ED5BFF4F80E090E0A6E9B3E4CE
:1028600080839183A283B3838E01015C1F4FFE019D
:10287000ED5BFF4F608171818281938120E030E0C8
:102880004AEF54E40E941702DC01CB01F801808377
:102890009183A283B383FE01FF966081718182815F
:1028A000938120E030E040E85FE30E9471038823D9
:1028B0002CF481E090E09EAF8DAF46C0FE01FF9604
:1028C000608171818281938120E03FEF4FE757E47F
:1028D0000E941103181664F5FE01ED5BFF4F608145
:1028E00071818281938120E030E040E251E40E94D6
:1028F0001702DC01CB01BC01CD010E944100DC01CB
:10290000CB019EAF8DAF0FC088EC90E09CAF8BAF3A
:102910008BAD9CAD0197F1F79CAF8BAF8DAD9EADAC
:1029200001979EAF8DAF8DAD9EAD009769F716C034
:10293000FE01FF9660817181828193810E94410036
:10294000DC01CB019EAF8DAF8DAD9EAD9AAF89AF4F
:1029500089AD9AAD0197F1F79AAF89AFFE01EB5AB5
:10296000FF4F8081082F10E00E94F90B282FCE0125
:10297000885A9F4FFC01E00FF11F2083FE01EB5AA4
:10298000FF4F8081282F30E0CE01885A9F4FFC01F5
:10299000E20FF31F80818F3F09F3FE01EB5AFF4FD7
:1029A0008081282F30E0CE01885A9F4FFC01E20F32
:1029B000F31F8081813479F0FE01EB5AFF4F808153
:1029C000282F30E0CE01885A9F4FFC01E20FF31F01
:1029D00080818D3319F40E94880A1BCDFE01EB5AC9
:1029E000FF4F8081282F30E0CE01885A9F4FFC0195
:1029F000E20FF31F80810E94DB09DE01AB5ABF4F5B
:102A0000FE01EB5AFF4F80818F5F8C9380E090E056
:102A1000A6E9B3E48DAB9EABAFABB8AF6DA97EA911
:102A20008FA998AD20E030E04AEF54E40E941702ED
:102A3000DC01CB0189AB9AABABABBCAB69A97AA982
:102A40008BA99CA920E030E040E85FE30E9471037D
:102A500088232CF481E090E098AB8FA73FC069A950
:102A60007AA98BA99CA920E03FEF4FE757E40E9489
:102A7000110318164CF56DA97EA98FA998AD20E019
:102A800030E040E251E40E941702DC01CB01BC01BE
:102A9000CD010E944100DC01CB0198AB8FA70FC094
:102AA00088EC90E09EA78DA78DA59EA50197F1F7D4
:102AB0009EA78DA78FA598A9019798AB8FA78FA5E3
:102AC00098A9009769F714C069A97AA98BA99CA94C
:102AD0000E944100DC01CB0198AB8FA78FA598A97C
:102AE0009CA78BA78BA59CA50197F1F79CA78BA70B
:102AF000FE01EB5AFF4F8081082F10E00E94F90B76
:102B0000282FCE01885A9F4FFC01E00FF11F208330
:102B1000FE01EB5AFF4F8081282F30E0CE01885A0A
:102B20009F4FFC01E20FF31F80818F3F09F3FE01ED
:102B3000EB5AFF4F8081282F30E0CE01885A9F4FFB
:102B4000FC01E20FF31F8081813409F44BC0FE01C8
:102B5000EB5AFF4F8081282F30E0CE01885A9F4FDB
:102B6000FC01E20FF31F80818D33E1F1FE01EB5A8E
:102B7000FF4F8081282F30E0CE01885A9F4FFC0103
:102B8000E20FF31F80818B3269F1FE01EB5AFF4F98
:102B90008081282F30E0CE01885A9F4FFC01E20F40
:102BA000F31F80818D32F1F0FE01EB5AFF4F8081DF
:102BB000282F30E0CE01885A9F4FFC01E20FF31F0F
:102BC00080818A3279F0FE01EB5AFF4F8081282FF5
:102BD00030E0CE01885A9F4FFC01E20FF31F808145
:102BE0008F3219F40E94880A14CCFE01EB5AFF4F71
:102BF0008081282F30E0CE01885A9F4FFC01E20FE0
:102C0000F31F80810E94DB09DE01AB5ABF4FFE013A
:102C1000EB5AFF4F80818F5F8C9380E090E0A6E9B4
:102C2000B3E48FA398A7A9A7BAA76FA178A589A590
:102C30009AA520E030E04AEF54E40E941702DC013C
:102C4000CB018BA39CA3ADA3BEA36BA17CA18DA143
:102C50009EA120E030E040E85FE30E9471038823FA
:102C60002CF481E090E09AA389A33FC06BA17CA1E2
:102C70008DA19EA120E03FEF4FE757E40E94110392
:102C800018164CF56FA178A589A59AA520E030E02B
:102C900040E251E40E941702DC01CB01BC01CD01EE
:102CA0000E944100DC01CB019AA389A30FC088ECEC
:102CB00090E098A38F8F8F8D98A10197F1F798A33B
:102CC0008F8F89A19AA101979AA389A389A19AA11B
:102CD000009769F714C06BA17CA18DA19EA10E94F1
:102CE0004100DC01CB019AA389A389A19AA19E8FFF
:102CF0008D8F8D8D9E8D0197F1F79E8F8D8FFE01AB
:102D0000EB5AFF4F8081082F10E00E94F90B282F0B
:102D1000CE01885A9F4FFC01E00FF11F2083FE0176
:102D2000EB5AFF4F8081282F30E0CE01885A9F4F09
:102D3000FC01E20FF31F80818F3F09F3FE01EB5A84
:102D4000FF4F8081282F30E0CE01885A9F4FFC0131
:102D5000E20FF31F8081813409F44BC0FE01EB5A6E
:102D6000FF4F8081282F30E0CE01885A9F4FFC0111
:102D7000E20FF31F80818D33E1F1FE01EB5AFF4F2B
:102D80008081282F30E0CE01885A9F4FFC01E20F4E
:102D9000F31F80818B3269F1FE01EB5AFF4F808176
:102DA000282F30E0CE01885A9F4FFC01E20FF31F1D
:102DB00080818D32F1F0FE01EB5AFF4F8081282F88
:102DC00030E0CE01885A9F4FFC01E20FF31F808153
:102DD0008A3279F0FE01EB5AFF4F8081282F30E0D4
:102DE000CE01885A9F4FFC01E20FF31F80818F3282
:102DF00019F40E94880A0DCBFE01EB5AFF4F808127
:102E0000282F30E0CE01885A9F4FFC01E20FF31FBC
:102E100080810E94DB09DE01AB5ABF4FFE01EB5AF5
:102E2000FF4F80818F5F8C9380E090E0A6E9B3E450
:102E3000898F9A8FAB8FBC8F698D7A8D8B8D9C8D8E
:102E400020E030E04AEF54E40E941702DC01CB019D
:102E50008D8B9E8BAF8BB88F6D897E898F89988D76
:102E600020E030E040E85FE30E94710388232CF407
:102E700081E090E09C8B8B8B3FC06D897E898F8930
:102E8000988D20E03FEF4FE757E40E94110318169A
:102E90004CF5698D7A8D8B8D9C8D20E030E040E281
:102EA00051E40E941702DC01CB01BC01CD010E945C
:102EB0004100DC01CB019C8B8B8B0FC088EC90E038
:102EC0009A8B898B89899A890197F1F79A8B898BDB
:102ED0008B899C8901979C8B8B8B8B899C89009714
:102EE00069F714C06D897E898F89988D0E94410091
:102EF000DC01CB019C8B8B8B8B899C89988B8F877A
:102F00008F8598890197F1F7988B8F87FE01EB5A8F
:102F1000FF4F8081082F10E00E94F90B282FCE016F
:102F2000885A9F4FFC01E00FF11F2083FE01EB5AEE
:102F3000FF4F8081282F30E0CE01885A9F4FFC013F
:102F4000E20FF31F80818F3F09F3FE01EB5AFF4F21
:102F50008081282F30E0CE01885A9F4FFC01E20F7C
:102F6000F31F80818D3309F0DCC4FE01EB5AFF4F63
:102F70008081282F30E0CE01885A9F4FFC01E20F5C
:102F8000F31F80810E94DB09FE01EB5AFF4F808115
:102F9000882F90E09C0123503040CE01885A9F4FEB
:102FA000FC01E20FF31F8081282F30E0A0963FAF95
:102FB0002EAFA097A0968EAD9FADA0978B329105B6
:102FC00009F1A096EEADFFADA097EC32F1054CF4FF
:102FD000A0962EAD3FADA0972A32310509F4F2C17B
:102FE0002BC4A0968EAD9FADA0978D32910509F4AC
:102FF000F5C0A096EEADFFADA097EF32F10509F454
:103000002BC31AC4FE01EB5AFF4F8081882F90E03A
:103010009C0124503040CE01885A9F4FFC01E20FA2
:10302000F31F8081882F90E0AC0140535040FE0197
:10303000EB5AFF4F8081882F90E09C012550304053
:10304000CE01885A9F4FFC01E20FF31F8081882F29
:1030500090E09C01220F331FC901880F991F880F30
:10306000991F820F931F805E9140480F591FFE01E8
:10307000EB5AFF4F8081882F90E09C012250304016
:10308000CE01885A9F4FFC01E20FF31F8081882FE9
:1030900090E09C01220F331FC901880F991F880FF0
:1030A000991F820F931F805E9140480F591FFE01A8
:1030B000EB5AFF4F8081882F90E09C0121503040D7
:1030C000CE01885A9F4FFC01E20FF31F8081882FA9
:1030D00090E0C097840F951FFE01EA5AFF4F91833D
:1030E0008083FE01EA5AFF4F8081918184369105E9
:1030F000C0F1FE01EA5AFF4F80819181F3E0883EE2
:103100009F0778F5FE01EA5AFF4F8081918124E6FE
:1031100030E0B9010E94951CCB01805D0E94DB0963
:10312000FE01EA5AFF4F808191812AE030E0B90127
:103130000E94951CCB012AE030E0B9010E94951C49
:10314000805D0E94DB09FE01EA5AFF4F8081918178
:103150002AE030E0B9010E94951C805D0E94DB09E5
:103160006BC3FE01EA5AFF4F808191818A3091053D
:1031700020F1FE01EA5AFF4F80819181843691054A
:10318000E0F4FE01EA5AFF4F808191812AE030E0AD
:10319000B9010E94951CCB01805D0E94DB09FE01F4
:1031A000EA5AFF4F808191812AE030E0B9010E9404
:1031B000951C805D0E94DB093FC3FE01EA5AFF4F68
:1031C000808191818A30910508F036C3FE01EA5A68
:1031D000FF4F8081805D0E94DB092EC3FE01EB5A08
:1031E000FF4F8081882F90E09C0124503040CE0119
:1031F000885A9F4FFC01E20FF31F8081882F90E0D7
:10320000AC0140535040FE01EB5AFF4F8081882FA4
:1032100090E09C0125503040CE01885A9F4FFC0120
:10322000E20FF31F8081882F90E09C01220F331F53
:10323000C901880F991F880F991F820F931F805E05
:103240009140BA01680F791FFE01EB5AFF4F808150
:10325000882F90E09C0121503040CE01885A9F4F2A
:10326000FC01E20FF31F8081282F30E080E390E023
:10327000AC01421B530BFE01EB5AFF4F8081882F9C
:1032800090E09C0122503040CE01885A9F4FFC01B3
:10329000E20FF31F8081882F90E09C01220F331FE3
:1032A000C901880F991F880F991F820F931F90954E
:1032B00081959F4F80529E4F840F951F860F971FB9
:1032C000FE01EA5AFF4F91838083FE01EA5AFF4FC5
:1032D0008081918184369105C0F1FE01EA5AFF4F49
:1032E0008081918123E0883E920778F5FE01EA5AB9
:1032F000FF4F8081918124E630E0B9010E94951C46
:10330000CB01805D0E94DB09FE01EA5AFF4F8081FC
:1033100091812AE030E0B9010E94951CCB012AE09E
:1033200030E0B9010E94951C805D0E94DB09FE011E
:10333000EA5AFF4F808191812AE030E0B9010E9472
:10334000951C805D0E94DB0977C2FE01EA5AFF4F9F
:10335000808191818A30910520F1FE01EA5AFF4F68
:103360008081918184369105E0F4FE01EA5AFF4F95
:10337000808191812AE030E0B9010E94951CCB0147
:10338000805D0E94DB09FE01EA5AFF4F8081918136
:103390002AE030E0B9010E94951C805D0E94DB09A3
:1033A0004BC2FE01EA5AFF4F808191818A3091051C
:1033B00008F042C2FE01EA5AFF4F8081805D0E9400
:1033C000DB093AC2FE01EB5AFF4F8081882F90E063
:1033D0009C0124503040CE01885A9F4FFC01E20FDF
:1033E000F31F8081882F90E0AC0140535040FE01D4
:1033F000EB5AFF4F8081882F90E09C012550304090
:10340000CE01885A9F4FFC01E20FF31F8081882F65
:1034100090E09C01220F331FC901880F991F880F6C
:10342000991F820F931F805E9140BA01680F791F28
:10343000FE01EB5AFF4F8081882F90E09C012250C3
:103440003040CE01885A9F4FFC01E20FF31F80816C
:10345000882F90E09C01220F331FC901880F991F0C
:10346000880F991F820F931FAC01405E5140FE01EF
:10347000EB5AFF4F8081882F90E09C012150304013
:10348000CE01885A9F4FFC01E20FF31F8081882FE5
:1034900090E0C097840F951FFC016E9FC0016F9F45
:1034A000900D7E9F900D1124FE01EA5AFF4F9183EB
:1034B0008083FE01EA5AFF4F80819181F3E0883ECC
:1034C0009F0708F44CC0FE01EA5AFF4F80819181AA
:1034D00027E28031920708F042C0FE01EA5AFF4F0E
:1034E0008081918128EE33E0B9010E94951CCB01C7
:1034F000805D0E94DB09FE01EA5AFF4F80819181C5
:1035000024E630E0B9010E94951CCB012AE030E0AE
:10351000B9010E94951C805D0E94DB09FE01EA5AF8
:10352000FF4F808191812AE030E0B9010E94951C13
:10353000CB012AE030E0B9010E94951C805D0E9419
:10354000DB09FE01EA5AFF4F808191812AE030E0D9
:10355000B9010E94951C805D0E94DB096DC1FE01CE
:10356000EA5AFF4F8081918184369105C0F1FE01B6
:10357000EA5AFF4F8081918133E0883E930778F5C6
:10358000FE01EA5AFF4F8081918124E630E0B901C3
:103590000E94951CCB01805D0E94DB09FE01EA5A66
:1035A000FF4F808191812AE030E0B9010E94951C93
:1035B000CB012AE030E0B9010E94951C805D0E9499
:1035C000DB09FE01EA5AFF4F808191812AE030E059
:1035D000B9010E94951C805D0E94DB092DC1FE018E
:1035E000EA5AFF4F808191818A30910520F1FE01D6
:1035F000EA5AFF4F8081918184369105E0F4FE0103
:10360000EA5AFF4F808191812AE030E0B9010E949F
:10361000951CCB01805D0E94DB09FE01EA5AFF4F39
:10362000808191812AE030E0B9010E94951C805D83
:103630000E94DB0901C1FE01EA5AFF4F808191819E
:103640008A30910508F0F8C0FE01EA5AFF4F8081E8
:10365000805D0E94DB09F0C0FE01EB5AFF4F8081C4
:10366000882F90E09C0124503040CE01885A9F4F13
:10367000FC01E20FF31F8081882F90E0AC014053E2
:103680005040FE01EB5AFF4F8081882F90E09C0153
:1036900025503040CE01885A9F4FFC01E20FF31FA6
:1036A0008081882F90E09C01220F331FC901880F71
:1036B000991F880F991F820F931F805E9140BA0156
:1036C000680F791FFE01EB5AFF4F8081882F90E031
:1036D0009C0122503040CE01885A9F4FFC01E20FDE
:1036E000F31F8081882F90E09C01220F331FC901B6
:1036F000880F991F880F991F820F931FAC01405E9E
:103700005140FE01EB5AFF4F8081882F90E09C01D1
:1037100021503040CE01885A9F4FFC01E20FF31F29
:103720008081882F90E0C0979A01280F391FCB0124
:10373000B9010E94A91CCB01FE01EA5AFF4F9183F7
:103740008083FE01EA5AFF4F808191818436910582
:10375000C0F1FE01EA5AFF4F80819181E3E0883E8B
:103760009E0778F5FE01EA5AFF4F8081918124E699
:1037700030E0B9010E94951CCB01805D0E94DB09FD
:10378000FE01EA5AFF4F808191812AE030E0B901C1
:103790000E94951CCB012AE030E0B9010E94951CE3
:1037A000805D0E94DB09FE01EA5AFF4F8081918112
:1037B0002AE030E0B9010E94951C805D0E94DB097F
:1037C0003BC0FE01EA5AFF4F808191818A3091050A
:1037D00020F1FE01EA5AFF4F8081918184369105E4
:1037E000E0F4FE01EA5AFF4F808191812AE030E047
:1037F000B9010E94951CCB01805D0E94DB09FE018E
:10380000EA5AFF4F808191812AE030E0B9010E949D
:10381000951C805D0E94DB090FC0FE01EA5AFF4F34
:10382000808191818A30910538F4FE01EA5AFF4F78
:103830008081805D0E94DB0980E090E0A8E4B3E431
:103840008B879C87AD87BE876B857C858D859E85A4
:1038500020E030E04AEF54E40E941702DC01CB0183
:103860008F839887A987BA876F81788589859A859C
:1038700020E030E040E85FE30E94710388232CF4ED
:1038800081E090E09E838D8340C06F81788589853B
:103890009A8520E03FEF4FE757E40E941103181686
:1038A00054F56B857C858D859E8520E030E040E277
:1038B00051E40E941702DC01CB01BC01CD010E9442
:1038C0004100DC01CB019E838D830FC088EC90E02A
:1038D0009C838B838B819C810197F1F79C838B83E5
:1038E0008D819E8101979E838D838D819E8100971E
:1038F00069F70C944C126F81788589859A850E94AE
:103900004100DC01CB019E838D838D819E819A8352
:10391000898389819A810197F1F79A8389830C942D
:103920004C120E94880A0C940912AA1BBB1B51E17D
:1039300007C0AA1FBB1FA617B70710F0A61BB70B1F
:10394000881F991F5A95A9F780959095BC01CD01C4
:10395000089597FB092E07260AD077FD04D0E5DFEE
:1039600006D000201AF4709561957F4F0895F6F700
:10397000909581959F4F08952F923F924F925F921D
:103980006F927F928F929F92AF92BF92CF92DF926F
:10399000EF92FF920F931F93CF93DF93CDB7DEB7D4
:1039A000CA1BDB0B0FB6F894DEBF0FBECDBF099468
:1039B0002A88398848885F846E847D848C849B84BF
:1039C000AA84B984C884DF80EE80FD800C811B81CD
:1039D000AA81B981CE0FD11D0FB6F894DEBF0FBEFC
:0A39E000CDBFED010895F894FFCF6C
:1039EA0000000000000000003738392F3435362A2D
:0E39FA003132332D41303D2BFFFFFFFFFFFF29
:00000001FF
